{
  "_format": "hh-sol-artifact-1",
  "contractName": "NFTMembership",
  "sourceName": "src/backend/contracts/NFTMembership.sol",
  "abi": [
    {
      "inputs": [],
      "stateMutability": "nonpayable",
      "type": "constructor"
    },
    {
      "anonymous": false,
      "inputs": [
        {
          "indexed": true,
          "internalType": "address",
          "name": "owner",
          "type": "address"
        },
        {
          "indexed": true,
          "internalType": "address",
          "name": "approved",
          "type": "address"
        },
        {
          "indexed": true,
          "internalType": "uint256",
          "name": "tokenId",
          "type": "uint256"
        }
      ],
      "name": "Approval",
      "type": "event"
    },
    {
      "anonymous": false,
      "inputs": [
        {
          "indexed": true,
          "internalType": "address",
          "name": "owner",
          "type": "address"
        },
        {
          "indexed": true,
          "internalType": "address",
          "name": "operator",
          "type": "address"
        },
        {
          "indexed": false,
          "internalType": "bool",
          "name": "approved",
          "type": "bool"
        }
      ],
      "name": "ApprovalForAll",
      "type": "event"
    },
    {
      "anonymous": false,
      "inputs": [
        {
          "indexed": true,
          "internalType": "address",
          "name": "from",
          "type": "address"
        },
        {
          "indexed": true,
          "internalType": "address",
          "name": "to",
          "type": "address"
        },
        {
          "indexed": true,
          "internalType": "uint256",
          "name": "tokenId",
          "type": "uint256"
        }
      ],
      "name": "Transfer",
      "type": "event"
    },
    {
      "inputs": [
        {
          "internalType": "address",
          "name": "to",
          "type": "address"
        },
        {
          "internalType": "uint256",
          "name": "tokenId",
          "type": "uint256"
        }
      ],
      "name": "approve",
      "outputs": [],
      "stateMutability": "nonpayable",
      "type": "function"
    },
    {
      "inputs": [
        {
          "internalType": "uint256",
          "name": "tokenId",
          "type": "uint256"
        }
      ],
      "name": "atheleteName",
      "outputs": [
        {
          "internalType": "string",
          "name": "",
          "type": "string"
        }
      ],
      "stateMutability": "view",
      "type": "function"
    },
    {
      "inputs": [
        {
          "internalType": "address",
          "name": "owner",
          "type": "address"
        }
      ],
      "name": "balanceOf",
      "outputs": [
        {
          "internalType": "uint256",
          "name": "",
          "type": "uint256"
        }
      ],
      "stateMutability": "view",
      "type": "function"
    },
    {
      "inputs": [
        {
          "internalType": "uint256",
          "name": "tokenId",
          "type": "uint256"
        }
      ],
      "name": "getApproved",
      "outputs": [
        {
          "internalType": "address",
          "name": "",
          "type": "address"
        }
      ],
      "stateMutability": "view",
      "type": "function"
    },
    {
      "inputs": [
        {
          "internalType": "address",
          "name": "owner",
          "type": "address"
        },
        {
          "internalType": "address",
          "name": "operator",
          "type": "address"
        }
      ],
      "name": "isApprovedForAll",
      "outputs": [
        {
          "internalType": "bool",
          "name": "",
          "type": "bool"
        }
      ],
      "stateMutability": "view",
      "type": "function"
    },
    {
      "inputs": [
        {
          "internalType": "string",
          "name": "_tokenURI",
          "type": "string"
        },
        {
          "internalType": "string",
          "name": "_athleteName",
          "type": "string"
        }
      ],
      "name": "mint",
      "outputs": [
        {
          "internalType": "uint256",
          "name": "",
          "type": "uint256"
        }
      ],
      "stateMutability": "nonpayable",
      "type": "function"
    },
    {
      "inputs": [],
      "name": "name",
      "outputs": [
        {
          "internalType": "string",
          "name": "",
          "type": "string"
        }
      ],
      "stateMutability": "view",
      "type": "function"
    },
    {
      "inputs": [
        {
          "internalType": "uint256",
          "name": "tokenId",
          "type": "uint256"
        }
      ],
      "name": "ownerOf",
      "outputs": [
        {
          "internalType": "address",
          "name": "",
          "type": "address"
        }
      ],
      "stateMutability": "view",
      "type": "function"
    },
    {
      "inputs": [
        {
          "internalType": "address",
          "name": "from",
          "type": "address"
        },
        {
          "internalType": "address",
          "name": "to",
          "type": "address"
        },
        {
          "internalType": "uint256",
          "name": "tokenId",
          "type": "uint256"
        }
      ],
      "name": "safeTransferFrom",
      "outputs": [],
      "stateMutability": "nonpayable",
      "type": "function"
    },
    {
      "inputs": [
        {
          "internalType": "address",
          "name": "from",
          "type": "address"
        },
        {
          "internalType": "address",
          "name": "to",
          "type": "address"
        },
        {
          "internalType": "uint256",
          "name": "tokenId",
          "type": "uint256"
        },
        {
          "internalType": "bytes",
          "name": "data",
          "type": "bytes"
        }
      ],
      "name": "safeTransferFrom",
      "outputs": [],
      "stateMutability": "nonpayable",
      "type": "function"
    },
    {
      "inputs": [
        {
          "internalType": "address",
          "name": "operator",
          "type": "address"
        },
        {
          "internalType": "bool",
          "name": "approved",
          "type": "bool"
        }
      ],
      "name": "setApprovalForAll",
      "outputs": [],
      "stateMutability": "nonpayable",
      "type": "function"
    },
    {
      "inputs": [
        {
          "internalType": "bytes4",
          "name": "interfaceId",
          "type": "bytes4"
        }
      ],
      "name": "supportsInterface",
      "outputs": [
        {
          "internalType": "bool",
          "name": "",
          "type": "bool"
        }
      ],
      "stateMutability": "view",
      "type": "function"
    },
    {
      "inputs": [],
      "name": "symbol",
      "outputs": [
        {
          "internalType": "string",
          "name": "",
          "type": "string"
        }
      ],
      "stateMutability": "view",
      "type": "function"
    },
    {
      "inputs": [],
      "name": "tokenCount",
      "outputs": [
        {
          "internalType": "uint256",
          "name": "",
          "type": "uint256"
        }
      ],
      "stateMutability": "view",
      "type": "function"
    },
    {
      "inputs": [
        {
          "internalType": "uint256",
          "name": "tokenId",
          "type": "uint256"
        }
      ],
      "name": "tokenURI",
      "outputs": [
        {
          "internalType": "string",
          "name": "",
          "type": "string"
        }
      ],
      "stateMutability": "view",
      "type": "function"
    },
    {
      "inputs": [
        {
          "internalType": "address",
          "name": "from",
          "type": "address"
        },
        {
          "internalType": "address",
          "name": "to",
          "type": "address"
        },
        {
          "internalType": "uint256",
          "name": "tokenId",
          "type": "uint256"
        }
      ],
      "name": "transferFrom",
      "outputs": [],
      "stateMutability": "nonpayable",
      "type": "function"
    }
  ],
  "bytecode": "0x60806040523480156200001157600080fd5b506040518060400160405280600e81526020017f4e4654204d656d626572736869700000000000000000000000000000000000008152506040518060400160405280600d81526020017f4e46544d656d6265727368697000000000000000000000000000000000000000815250816000908051906020019062000096929190620000b8565b508060019080519060200190620000af929190620000b8565b505050620001cd565b828054620000c69062000168565b90600052602060002090601f016020900481019282620000ea576000855562000136565b82601f106200010557805160ff191683800117855562000136565b8280016001018555821562000136579182015b828111156200013557825182559160200191906001019062000118565b5b50905062000145919062000149565b5090565b5b80821115620001645760008160009055506001016200014a565b5090565b600060028204905060018216806200018157607f821691505b602082108114156200019857620001976200019e565b5b50919050565b7f4e487b7100000000000000000000000000000000000000000000000000000000600052602260045260246000fd5b612a2280620001dd6000396000f3fe608060405234801561001057600080fd5b50600436106101005760003560e01c80638aa0fdad11610097578063a22cb46511610066578063a22cb465146102d3578063b88d4fde146102ef578063c87b56dd1461030b578063e985e9c51461033b57610100565b80638aa0fdad146102375780639339d25d1461026757806395d89b41146102975780639f181b5e146102b557610100565b806323b872dd116100d357806323b872dd1461019f57806342842e0e146101bb5780636352211e146101d757806370a082311461020757610100565b806301ffc9a71461010557806306fdde0314610135578063081812fc14610153578063095ea7b314610183575b600080fd5b61011f600480360381019061011a9190611cd1565b61036b565b60405161012c91906120b7565b60405180910390f35b61013d61044d565b60405161014a91906120d2565b60405180910390f35b61016d60048036038101906101689190611d8f565b6104df565b60405161017a9190612050565b60405180910390f35b61019d60048036038101906101989190611c95565b610525565b005b6101b960048036038101906101b49190611b8f565b61063d565b005b6101d560048036038101906101d09190611b8f565b61069d565b005b6101f160048036038101906101ec9190611d8f565b6106bd565b6040516101fe9190612050565b60405180910390f35b610221600480360381019061021c9190611b2a565b61076f565b60405161022e9190612274565b60405180910390f35b610251600480360381019061024c9190611d23565b610827565b60405161025e9190612274565b60405180910390f35b610281600480360381019061027c9190611d8f565b61088e565b60405161028e91906120d2565b60405180910390f35b61029f610939565b6040516102ac91906120d2565b60405180910390f35b6102bd6109cb565b6040516102ca9190612274565b60405180910390f35b6102ed60048036038101906102e89190611c59565b6109d1565b005b61030960048036038101906103049190611bde565b6109e7565b005b61032560048036038101906103209190611d8f565b610a49565b60405161033291906120d2565b60405180910390f35b61035560048036038101906103509190611b53565b610b5c565b60405161036291906120b7565b60405180910390f35b60007f80ac58cd000000000000000000000000000000000000000000000000000000007bffffffffffffffffffffffffffffffffffffffffffffffffffffffff1916827bffffffffffffffffffffffffffffffffffffffffffffffffffffffff1916148061043657507f5b5e139f000000000000000000000000000000000000000000000000000000007bffffffffffffffffffffffffffffffffffffffffffffffffffffffff1916827bffffffffffffffffffffffffffffffffffffffffffffffffffffffff1916145b80610446575061044582610bf0565b5b9050919050565b60606000805461045c906124ca565b80601f0160208091040260200160405190810160405280929190818152602001828054610488906124ca565b80156104d55780601f106104aa576101008083540402835291602001916104d5565b820191906000526020600020905b8154815290600101906020018083116104b857829003601f168201915b5050505050905090565b60006104ea82610c5a565b6004600083815260200190815260200160002060009054906101000a900473ffffffffffffffffffffffffffffffffffffffff169050919050565b6000610530826106bd565b90508073ffffffffffffffffffffffffffffffffffffffff168373ffffffffffffffffffffffffffffffffffffffff1614156105a1576040517f08c379a000000000000000000000000000000000000000000000000000000000815260040161059890612234565b60405180910390fd5b8073ffffffffffffffffffffffffffffffffffffffff166105c0610ca5565b73ffffffffffffffffffffffffffffffffffffffff1614806105ef57506105ee816105e9610ca5565b610b5c565b5b61062e576040517f08c379a0000000000000000000000000000000000000000000000000000000008152600401610625906121d4565b60405180910390fd5b6106388383610cad565b505050565b61064e610648610ca5565b82610d66565b61068d576040517f08c379a000000000000000000000000000000000000000000000000000000000815260040161068490612254565b60405180910390fd5b610698838383610dfb565b505050565b6106b8838383604051806020016040528060008152506109e7565b505050565b6000806002600084815260200190815260200160002060009054906101000a900473ffffffffffffffffffffffffffffffffffffffff169050600073ffffffffffffffffffffffffffffffffffffffff168173ffffffffffffffffffffffffffffffffffffffff161415610766576040517f08c379a000000000000000000000000000000000000000000000000000000000815260040161075d90612214565b60405180910390fd5b80915050919050565b60008073ffffffffffffffffffffffffffffffffffffffff168273ffffffffffffffffffffffffffffffffffffffff1614156107e0576040517f08c379a00000000000000000000000000000000000000000000000000000000081526004016107d790612194565b60405180910390fd5b600360008373ffffffffffffffffffffffffffffffffffffffff1673ffffffffffffffffffffffffffffffffffffffff168152602001908152602001600020549050919050565b60006007600081548092919061083c9061252d565b919050555061084d33600754611062565b61085960075484611080565b81600860006007548152602001908152602001600020908051906020019061088292919061194e565b50600754905092915050565b606060006008600084815260200190815260200160002080546108b0906124ca565b80601f01602080910402602001604051908101604052809291908181526020018280546108dc906124ca565b80156109295780601f106108fe57610100808354040283529160200191610929565b820191906000526020600020905b81548152906001019060200180831161090c57829003601f168201915b5050505050905080915050919050565b606060018054610948906124ca565b80601f0160208091040260200160405190810160405280929190818152602001828054610974906124ca565b80156109c15780601f10610996576101008083540402835291602001916109c1565b820191906000526020600020905b8154815290600101906020018083116109a457829003601f168201915b5050505050905090565b60075481565b6109e36109dc610ca5565b83836110f4565b5050565b6109f86109f2610ca5565b83610d66565b610a37576040517f08c379a0000000000000000000000000000000000000000000000000000000008152600401610a2e90612254565b60405180910390fd5b610a4384848484611261565b50505050565b6060610a5482610c5a565b6000600660008481526020019081526020016000208054610a74906124ca565b80601f0160208091040260200160405190810160405280929190818152602001828054610aa0906124ca565b8015610aed5780601f10610ac257610100808354040283529160200191610aed565b820191906000526020600020905b815481529060010190602001808311610ad057829003601f168201915b505050505090506000610afe6112bd565b9050600081511415610b14578192505050610b57565b600082511115610b49578082604051602001610b3192919061202c565b60405160208183030381529060405292505050610b57565b610b52846112d4565b925050505b919050565b6000600560008473ffffffffffffffffffffffffffffffffffffffff1673ffffffffffffffffffffffffffffffffffffffff16815260200190815260200160002060008373ffffffffffffffffffffffffffffffffffffffff1673ffffffffffffffffffffffffffffffffffffffff16815260200190815260200160002060009054906101000a900460ff16905092915050565b60007f01ffc9a7000000000000000000000000000000000000000000000000000000007bffffffffffffffffffffffffffffffffffffffffffffffffffffffff1916827bffffffffffffffffffffffffffffffffffffffffffffffffffffffff1916149050919050565b610c638161133c565b610ca2576040517f08c379a0000000000000000000000000000000000000000000000000000000008152600401610c9990612214565b60405180910390fd5b50565b600033905090565b816004600083815260200190815260200160002060006101000a81548173ffffffffffffffffffffffffffffffffffffffff021916908373ffffffffffffffffffffffffffffffffffffffff160217905550808273ffffffffffffffffffffffffffffffffffffffff16610d20836106bd565b73ffffffffffffffffffffffffffffffffffffffff167f8c5be1e5ebec7d5bd14f71427d1e84f3dd0314c0f7b2291e5b200ac8c7c3b92560405160405180910390a45050565b600080610d72836106bd565b90508073ffffffffffffffffffffffffffffffffffffffff168473ffffffffffffffffffffffffffffffffffffffff161480610db45750610db38185610b5c565b5b80610df257508373ffffffffffffffffffffffffffffffffffffffff16610dda846104df565b73ffffffffffffffffffffffffffffffffffffffff16145b91505092915050565b8273ffffffffffffffffffffffffffffffffffffffff16610e1b826106bd565b73ffffffffffffffffffffffffffffffffffffffff1614610e71576040517f08c379a0000000000000000000000000000000000000000000000000000000008152600401610e6890612114565b60405180910390fd5b600073ffffffffffffffffffffffffffffffffffffffff168273ffffffffffffffffffffffffffffffffffffffff161415610ee1576040517f08c379a0000000000000000000000000000000000000000000000000000000008152600401610ed890612154565b60405180910390fd5b610eec8383836113a8565b610ef7600082610cad565b6001600360008573ffffffffffffffffffffffffffffffffffffffff1673ffffffffffffffffffffffffffffffffffffffff1681526020019081526020016000206000828254610f4791906123e0565b925050819055506001600360008473ffffffffffffffffffffffffffffffffffffffff1673ffffffffffffffffffffffffffffffffffffffff1681526020019081526020016000206000828254610f9e9190612359565b92505081905550816002600083815260200190815260200160002060006101000a81548173ffffffffffffffffffffffffffffffffffffffff021916908373ffffffffffffffffffffffffffffffffffffffff160217905550808273ffffffffffffffffffffffffffffffffffffffff168473ffffffffffffffffffffffffffffffffffffffff167fddf252ad1be2c89b69c2b068fc378daa952ba7f163c4a11628f55a4df523b3ef60405160405180910390a461105d8383836113ad565b505050565b61107c8282604051806020016040528060008152506113b2565b5050565b6110898261133c565b6110c8576040517f08c379a00000000000000000000000000000000000000000000000000000000081526004016110bf906121b4565b60405180910390fd5b806006600084815260200190815260200160002090805190602001906110ef92919061194e565b505050565b8173ffffffffffffffffffffffffffffffffffffffff168373ffffffffffffffffffffffffffffffffffffffff161415611163576040517f08c379a000000000000000000000000000000000000000000000000000000000815260040161115a90612174565b60405180910390fd5b80600560008573ffffffffffffffffffffffffffffffffffffffff1673ffffffffffffffffffffffffffffffffffffffff16815260200190815260200160002060008473ffffffffffffffffffffffffffffffffffffffff1673ffffffffffffffffffffffffffffffffffffffff16815260200190815260200160002060006101000a81548160ff0219169083151502179055508173ffffffffffffffffffffffffffffffffffffffff168373ffffffffffffffffffffffffffffffffffffffff167f17307eab39ab6107e8899845ad3d59bd9653f200f220920489ca2b5937696c318360405161125491906120b7565b60405180910390a3505050565b61126c848484610dfb565b6112788484848461140d565b6112b7576040517f08c379a00000000000000000000000000000000000000000000000000000000081526004016112ae906120f4565b60405180910390fd5b50505050565b606060405180602001604052806000815250905090565b60606112df82610c5a565b60006112e96112bd565b905060008151116113095760405180602001604052806000815250611334565b80611313846115a4565b60405160200161132492919061202c565b6040516020818303038152906040525b915050919050565b60008073ffffffffffffffffffffffffffffffffffffffff166002600084815260200190815260200160002060009054906101000a900473ffffffffffffffffffffffffffffffffffffffff1673ffffffffffffffffffffffffffffffffffffffff1614159050919050565b505050565b505050565b6113bc8383611751565b6113c9600084848461140d565b611408576040517f08c379a00000000000000000000000000000000000000000000000000000000081526004016113ff906120f4565b60405180910390fd5b505050565b600061142e8473ffffffffffffffffffffffffffffffffffffffff1661192b565b15611597578373ffffffffffffffffffffffffffffffffffffffff1663150b7a02611457610ca5565b8786866040518563ffffffff1660e01b8152600401611479949392919061206b565b602060405180830381600087803b15801561149357600080fd5b505af19250505080156114c457506040513d601f19601f820116820180604052508101906114c19190611cfa565b60015b611547573d80600081146114f4576040519150601f19603f3d011682016040523d82523d6000602084013e6114f9565b606091505b5060008151141561153f576040517f08c379a0000000000000000000000000000000000000000000000000000000008152600401611536906120f4565b60405180910390fd5b805181602001fd5b63150b7a0260e01b7bffffffffffffffffffffffffffffffffffffffffffffffffffffffff1916817bffffffffffffffffffffffffffffffffffffffffffffffffffffffff19161491505061159c565b600190505b949350505050565b606060008214156115ec576040518060400160405280600181526020017f3000000000000000000000000000000000000000000000000000000000000000815250905061174c565b600082905060005b6000821461161e5780806116079061252d565b915050600a8261161791906123af565b91506115f4565b60008167ffffffffffffffff811115611660577f4e487b7100000000000000000000000000000000000000000000000000000000600052604160045260246000fd5b6040519080825280601f01601f1916602001820160405280156116925781602001600182028036833780820191505090505b5090505b60008514611745576001826116ab91906123e0565b9150600a856116ba9190612576565b60306116c69190612359565b60f81b818381518110611702577f4e487b7100000000000000000000000000000000000000000000000000000000600052603260045260246000fd5b60200101907effffffffffffffffffffffffffffffffffffffffffffffffffffffffffffff1916908160001a905350600a8561173e91906123af565b9450611696565b8093505050505b919050565b600073ffffffffffffffffffffffffffffffffffffffff168273ffffffffffffffffffffffffffffffffffffffff1614156117c1576040517f08c379a00000000000000000000000000000000000000000000000000000000081526004016117b8906121f4565b60405180910390fd5b6117ca8161133c565b1561180a576040517f08c379a000000000000000000000000000000000000000000000000000000000815260040161180190612134565b60405180910390fd5b611816600083836113a8565b6001600360008473ffffffffffffffffffffffffffffffffffffffff1673ffffffffffffffffffffffffffffffffffffffff16815260200190815260200160002060008282546118669190612359565b92505081905550816002600083815260200190815260200160002060006101000a81548173ffffffffffffffffffffffffffffffffffffffff021916908373ffffffffffffffffffffffffffffffffffffffff160217905550808273ffffffffffffffffffffffffffffffffffffffff16600073ffffffffffffffffffffffffffffffffffffffff167fddf252ad1be2c89b69c2b068fc378daa952ba7f163c4a11628f55a4df523b3ef60405160405180910390a4611927600083836113ad565b5050565b6000808273ffffffffffffffffffffffffffffffffffffffff163b119050919050565b82805461195a906124ca565b90600052602060002090601f01602090048101928261197c57600085556119c3565b82601f1061199557805160ff19168380011785556119c3565b828001600101855582156119c3579182015b828111156119c25782518255916020019190600101906119a7565b5b5090506119d091906119d4565b5090565b5b808211156119ed5760008160009055506001016119d5565b5090565b6000611a046119ff846122b4565b61228f565b905082815260208101848484011115611a1c57600080fd5b611a27848285612488565b509392505050565b6000611a42611a3d846122e5565b61228f565b905082815260208101848484011115611a5a57600080fd5b611a65848285612488565b509392505050565b600081359050611a7c81612990565b92915050565b600081359050611a91816129a7565b92915050565b600081359050611aa6816129be565b92915050565b600081519050611abb816129be565b92915050565b600082601f830112611ad257600080fd5b8135611ae28482602086016119f1565b91505092915050565b600082601f830112611afc57600080fd5b8135611b0c848260208601611a2f565b91505092915050565b600081359050611b24816129d5565b92915050565b600060208284031215611b3c57600080fd5b6000611b4a84828501611a6d565b91505092915050565b60008060408385031215611b6657600080fd5b6000611b7485828601611a6d565b9250506020611b8585828601611a6d565b9150509250929050565b600080600060608486031215611ba457600080fd5b6000611bb286828701611a6d565b9350506020611bc386828701611a6d565b9250506040611bd486828701611b15565b9150509250925092565b60008060008060808587031215611bf457600080fd5b6000611c0287828801611a6d565b9450506020611c1387828801611a6d565b9350506040611c2487828801611b15565b925050606085013567ffffffffffffffff811115611c4157600080fd5b611c4d87828801611ac1565b91505092959194509250565b60008060408385031215611c6c57600080fd5b6000611c7a85828601611a6d565b9250506020611c8b85828601611a82565b9150509250929050565b60008060408385031215611ca857600080fd5b6000611cb685828601611a6d565b9250506020611cc785828601611b15565b9150509250929050565b600060208284031215611ce357600080fd5b6000611cf184828501611a97565b91505092915050565b600060208284031215611d0c57600080fd5b6000611d1a84828501611aac565b91505092915050565b60008060408385031215611d3657600080fd5b600083013567ffffffffffffffff811115611d5057600080fd5b611d5c85828601611aeb565b925050602083013567ffffffffffffffff811115611d7957600080fd5b611d8585828601611aeb565b9150509250929050565b600060208284031215611da157600080fd5b6000611daf84828501611b15565b91505092915050565b611dc181612414565b82525050565b611dd081612426565b82525050565b6000611de182612316565b611deb818561232c565b9350611dfb818560208601612497565b611e0481612663565b840191505092915050565b6000611e1a82612321565b611e24818561233d565b9350611e34818560208601612497565b611e3d81612663565b840191505092915050565b6000611e5382612321565b611e5d818561234e565b9350611e6d818560208601612497565b80840191505092915050565b6000611e8660328361233d565b9150611e9182612674565b604082019050919050565b6000611ea960258361233d565b9150611eb4826126c3565b604082019050919050565b6000611ecc601c8361233d565b9150611ed782612712565b602082019050919050565b6000611eef60248361233d565b9150611efa8261273b565b604082019050919050565b6000611f1260198361233d565b9150611f1d8261278a565b602082019050919050565b6000611f3560298361233d565b9150611f40826127b3565b604082019050919050565b6000611f58602e8361233d565b9150611f6382612802565b604082019050919050565b6000611f7b603e8361233d565b9150611f8682612851565b604082019050919050565b6000611f9e60208361233d565b9150611fa9826128a0565b602082019050919050565b6000611fc160188361233d565b9150611fcc826128c9565b602082019050919050565b6000611fe460218361233d565b9150611fef826128f2565b604082019050919050565b6000612007602e8361233d565b915061201282612941565b604082019050919050565b6120268161247e565b82525050565b60006120388285611e48565b91506120448284611e48565b91508190509392505050565b60006020820190506120656000830184611db8565b92915050565b60006080820190506120806000830187611db8565b61208d6020830186611db8565b61209a604083018561201d565b81810360608301526120ac8184611dd6565b905095945050505050565b60006020820190506120cc6000830184611dc7565b92915050565b600060208201905081810360008301526120ec8184611e0f565b905092915050565b6000602082019050818103600083015261210d81611e79565b9050919050565b6000602082019050818103600083015261212d81611e9c565b9050919050565b6000602082019050818103600083015261214d81611ebf565b9050919050565b6000602082019050818103600083015261216d81611ee2565b9050919050565b6000602082019050818103600083015261218d81611f05565b9050919050565b600060208201905081810360008301526121ad81611f28565b9050919050565b600060208201905081810360008301526121cd81611f4b565b9050919050565b600060208201905081810360008301526121ed81611f6e565b9050919050565b6000602082019050818103600083015261220d81611f91565b9050919050565b6000602082019050818103600083015261222d81611fb4565b9050919050565b6000602082019050818103600083015261224d81611fd7565b9050919050565b6000602082019050818103600083015261226d81611ffa565b9050919050565b6000602082019050612289600083018461201d565b92915050565b60006122996122aa565b90506122a582826124fc565b919050565b6000604051905090565b600067ffffffffffffffff8211156122cf576122ce612634565b5b6122d882612663565b9050602081019050919050565b600067ffffffffffffffff821115612300576122ff612634565b5b61230982612663565b9050602081019050919050565b600081519050919050565b600081519050919050565b600082825260208201905092915050565b600082825260208201905092915050565b600081905092915050565b60006123648261247e565b915061236f8361247e565b9250827fffffffffffffffffffffffffffffffffffffffffffffffffffffffffffffffff038211156123a4576123a36125a7565b5b828201905092915050565b60006123ba8261247e565b91506123c58361247e565b9250826123d5576123d46125d6565b5b828204905092915050565b60006123eb8261247e565b91506123f68361247e565b925082821015612409576124086125a7565b5b828203905092915050565b600061241f8261245e565b9050919050565b60008115159050919050565b60007fffffffff0000000000000000000000000000000000000000000000000000000082169050919050565b600073ffffffffffffffffffffffffffffffffffffffff82169050919050565b6000819050919050565b82818337600083830152505050565b60005b838110156124b557808201518184015260208101905061249a565b838111156124c4576000848401525b50505050565b600060028204905060018216806124e257607f821691505b602082108114156124f6576124f5612605565b5b50919050565b61250582612663565b810181811067ffffffffffffffff8211171561252457612523612634565b5b80604052505050565b60006125388261247e565b91507fffffffffffffffffffffffffffffffffffffffffffffffffffffffffffffffff82141561256b5761256a6125a7565b5b600182019050919050565b60006125818261247e565b915061258c8361247e565b92508261259c5761259b6125d6565b5b828206905092915050565b7f4e487b7100000000000000000000000000000000000000000000000000000000600052601160045260246000fd5b7f4e487b7100000000000000000000000000000000000000000000000000000000600052601260045260246000fd5b7f4e487b7100000000000000000000000000000000000000000000000000000000600052602260045260246000fd5b7f4e487b7100000000000000000000000000000000000000000000000000000000600052604160045260246000fd5b6000601f19601f8301169050919050565b7f4552433732313a207472616e7366657220746f206e6f6e20455243373231526560008201527f63656976657220696d706c656d656e7465720000000000000000000000000000602082015250565b7f4552433732313a207472616e736665722066726f6d20696e636f72726563742060008201527f6f776e6572000000000000000000000000000000000000000000000000000000602082015250565b7f4552433732313a20746f6b656e20616c7265616479206d696e74656400000000600082015250565b7f4552433732313a207472616e7366657220746f20746865207a65726f2061646460008201527f7265737300000000000000000000000000000000000000000000000000000000602082015250565b7f4552433732313a20617070726f766520746f2063616c6c657200000000000000600082015250565b7f4552433732313a2061646472657373207a65726f206973206e6f74206120766160008201527f6c6964206f776e65720000000000000000000000000000000000000000000000602082015250565b7f45524337323155524953746f726167653a2055524920736574206f66206e6f6e60008201527f6578697374656e7420746f6b656e000000000000000000000000000000000000602082015250565b7f4552433732313a20617070726f76652063616c6c6572206973206e6f7420746f60008201527f6b656e206f776e6572206e6f7220617070726f76656420666f7220616c6c0000602082015250565b7f4552433732313a206d696e7420746f20746865207a65726f2061646472657373600082015250565b7f4552433732313a20696e76616c696420746f6b656e2049440000000000000000600082015250565b7f4552433732313a20617070726f76616c20746f2063757272656e74206f776e6560008201527f7200000000000000000000000000000000000000000000000000000000000000602082015250565b7f4552433732313a2063616c6c6572206973206e6f7420746f6b656e206f776e6560008201527f72206e6f7220617070726f766564000000000000000000000000000000000000602082015250565b61299981612414565b81146129a457600080fd5b50565b6129b081612426565b81146129bb57600080fd5b50565b6129c781612432565b81146129d257600080fd5b50565b6129de8161247e565b81146129e957600080fd5b5056fea2646970667358221220382932fc9a9bae7f0f912319e15183e602d7dcb576e6c155b31880a1be9223e564736f6c63430008040033",
  "linkReferences": {},
  "deployedLinkReferences": {}
}